:020000040800F2
:100000008005002001010008A5210008B520000896
:10001000A1210008C5060008AD240008000000006A
:10002000000000000000000000000000AD210008FA
:10003000C906000800000000A9210008B12100083D
:100040001B0100081B0100081B0100081B01000820
:100050001B0100081B0100081B0100081B01000810
:100060001B0100081B0100081B0100081B01000800
:100070001B0100081B0100081B0100081B010008F0
:100080001B0100081B0100081B0100081B010008E0
:100090001B0100081B0100081B0100081B010008D0
:1000A0001B0100081B0100081B0100081B010008C0
:1000B0001B0100081B0100081B0100081B010008B0
:1000C0001B0100081B0100081B0100081B010008A0
:1000D0001B010008A12400081B0100081B010008E7
:1000E0001B0100081B0100081B010008DFF80CD0F1
:1000F00000F042FA00480047112500088005002062
:100100000648804706480047FEE7FEE7FEE7FEE7B1
:10011000FEE7FEE7FEE7FEE7FEE7FEE76D220008EA
:10012000ED00000840EA01039B0703D009E008C97D
:10013000121F08C0042AFAD203E011F8013B00F8AC
:10014000013B521EF9D27047D2B201E000F8012BF8
:10015000491EFBD270470022F6E710B513460A4647
:1001600004461946FFF7F0FF204610BD421C10F868
:10017000011B0029FBD1801A704730B50B460146A0
:1001800000202022012409E021FA02F59D4205D336
:1001900003FA02F5491B04FA02F52844151EA2F1E0
:1001A0000102F1DC30BD2DE9F05F054600209246EA
:1001B0009B4688460646814640241BE02846414629
:1001C0004746224600F0FFF953465A46C01A91416D
:1001D00010D311461846224600F0E6F92D1A67EBB7
:1001E00001084F4622460120002100F0DDF917EBFF
:1001F00000094E41201EA4F10104DFDC48463146CF
:100200002A464346BDE8F09F2DE9FE4F804681EA2D
:100210000300C00F0C46009021F0004123F0004580
:10022000B8EB0200A94105D24046214690461C4643
:100230000B46024623F00040104347D0270DC7F37A
:100240000A00C3F30A510290401A019040286BDA69
:10025000C3F3130040F4801B0098924620B10023A2
:10026000D2EB030A63EB0B0B01985946C0F1400235
:10027000504600F099F906460D4650465946019AF7
:1002800000F0B1F910EB08006141002487EA115237
:1002900084EAE7731A4340D0009A62B3019A012AB4
:1002A0004FEA075215DC001B61EB02014FF00042E0
:1002B00002EA0752CDE90042001C41F580113246A6
:1002C0002B4600F0B1F903B0BDE8F08F404621465F
:1002D000F9E7001B61EB0201001C41F580130018D7
:1002E0005B412018A2F5001747EB030140EAD570E7
:1002F000B6196D4111E06D084FEA360645EAC07542
:100300004FEA0752001B61EB0201001C41F580110E
:1003100049084FEA30000019514132462B4603B0DC
:10032000BDE8F04F00F071B90098012240000023B1
:10033000D0EB020263EBE073009821464FEAE074D1
:10034000B8EB000061EB0401E9E783F000435BE7F1
:1003500081F0004158E72DE9FE4F81EA030404F0E3
:10036000004421F0004100944FF0000B23F00043C3
:1003700050EA01045ED052EA03045BD0C3F30A548E
:10038000C1F30A552C44A4F2F3340194A0FB0254A7
:10039000C1F3130141F48011C3F3130343F4801339
:1003A00001FB024400FB034E840A970A44EA81548D
:1003B00047EA8357A4FB076802958D0A05FB07856A
:1003C0004FEA932C04FB0C542705029D4FEA065874
:1003D00047EA1637B5EB08056EEB070C870E920E51
:1003E00047EA811742EA8312A7FB0201B6EB0B0131
:1003F00064EB00042B0D43EA0C335E1844EB1C50F5
:10040000DA465146E7FB0201C5F313044FEA0B330A
:1004100043EA14534FEA0432019C43EA0603A4F171
:100420000C040294009CCDE900B400F0FDF803B088
:10043000BDE8F08F00200146F9E72DE9F04D81EA93
:10044000030404F0004B21F0004514464FF0000A6D
:1004500023F0004150EA050220D054EA01021DD0E9
:10046000C5F30A570246C5F31303C1F31300C1F3E2
:100470000A5640F4801543F48013A7EB0608101BBE
:10048000D64608F2FD3873EB050002D308F10108E7
:1004900001E092185B41B8F1000F03DA0020014639
:1004A000BDE8F08D00204FF48011064684460EE032
:1004B000171B73EB050705D3121B63EB05030643FC
:1004C0004CEA010C49084FEA300092185B4150EAAF
:1004D0000107EDD152EA030012D082EA040083EA58
:1004E0000501084305D0101BAB4106D201220023B1
:1004F00006E000224FF0004302E06FF001025310CB
:100500001AEB06004CEB085110EB0A0041EB0B0113
:10051000BDE8F04D00F079B8C1F30A52C1F3130100
:1005200040F2FF3341F480119A4202DA0020014682
:10053000704740F233439A42A2F2334202DC524205
:1005400000F041B800F030B830B5041E71F100047D
:1005500004DB4FF00044404264EB0101141E73F1D0
:10056000000405DB1C464FF00043524263EB0403DA
:10057000994208BF904230BD1CB509480090094817
:1005800001900546009C06E0E06840F0010394E815
:10059000070098471034AC42F6D3FFF7ABFD0000DC
:1005A00088380008A8380008202A04DB203A00FA1E
:1005B00002F1002070479140C2F1200320FA03F3BA
:1005C000194390407047202A04DB203A21FA02F0B8
:1005D0000021704721FA02F3D040C2F1200291407D
:1005E000084319467047202A06DBCB17203A41FA08
:1005F00002F043EAE07306E041FA02F3D040C2F1B0
:100600002002914008431946704710B5141E73F13B
:10061000000408DA401C41F1000192185B411A43C2
:1006200001D120F0010010BD2DE9F04D92469B460E
:1006300011B1B1FA81F202E0B0FA80F220329046B4
:10064000FFF7B2FF04460F4640EA0A0041EA0B01F9
:1006500053465A46084313D0114653EA010019D0B5
:10066000C8F140025046FFF7AEFF05460E46504621
:1006700059464246FFF798FF084305D0012004E0A1
:1006800020463946BDE8F08D0020054346EAE07675
:100690002C4337430A986305E40AA0EB08000022C4
:1006A000FD0A44EA47540A3002D500200146E9E732
:1006B000010510196941DDE9084500196941BDE8E6
:1006C000F04DA2E7FEE700007047000040F234045E
:1006D00043F28E75C2F20004C0F60005EFF31080FD
:1006E00072B600BF2046294611224FF47A7301F0FA
:1006F00015FC4FF47A7000F081F8F3E7014690F8AA
:100700002100022816D10868D1E90FC3026822F03F
:100710000E020260026822F001020260012000FA6B
:1007200003F2CCF8042081F821000020002281F897
:1007300020207047042088630120002281F82020B7
:100740007047000090F82110022923D1026840F27E
:10075000040C1168C4F2020C21F00E011160136840
:100760002F21C4F202018A4223F00103136015DD38
:100770003023C4F202039A421CD04423C4F2020381
:100780009A421BD05823C4F202039A421CD14FF460
:10079000803321E004218163012070470823C4F2E3
:1007A00002039A420ED01C23C4F202039A420BD1D8
:1007B000102311E04FF480730EE000BF4FF480531C
:1007C0000AE000BF012307E00CF168014FF08073DD
:1007D0008A4208BF4FF480130121CCF8003080F822
:1007E0002110416B0022002980F8202004BF002046
:1007F000704780B58847002080BD0000B0B5044632
:1008000000F012FA054640F20000C2F20000007843
:10081000611C18BF044400BF00F006FA401BA04250
:10082000FAD3B0BD2DE9F04F83B00546A0F180406A
:10083000A0F584304FEAB024052C894606D343F650
:100840001100C0F60000BD2101F032FED9F8000011
:100850000021B1EB104F01D180B230B943F6110045
:10086000C0F60000BE2101F023FED9F804004FF6C7
:10087000FF71C1F2100188424FF6FF71C1F22101F0
:100880000ADC122829D8012101FA00F00F21C0F258
:100890000601084228D120E088420FDC0021C1F285
:1008A0001101884220D00021C1F2120188421BD0E0
:1008B0000021C1F22101884216D00EE00021C1F2D0
:1008C0002201884210D00021C1F2310188420BD0B0
:1008D0000021C1F23201884206D043F61100C0F671
:1008E0000000BF2101F0E4FDD9F80000002800F06D
:1008F000778140F20C4C40F2004E41F20041C4F2CC
:10090000010CC4F2010EC4F2010104224FF00008F0
:1009100000264FF0000A8D4208BF03220092019486
:1009200046E000BF41F20002C4F201029542009A83
:1009300008BF022208F00C070F24BC40A143BA40B4
:10094000B308114340F82310D9F80400C102DEF8BF
:10095000081054BF21EA0B0141EA0B01CEF8081040
:10096000019CDCF80010820254BF21EA0B0141EA2D
:100970000B01CCF800108203DEF8041054BF21EA0A
:100980000B0141EA0B01C003CEF80410DEF80000B1
:1009900054BF20EA0B0040EA0B00CEF80000D9F863
:1009A0000000013630FA06F108F1040800F0188161
:1009B000012101FA06F710EA070BF0D0052C0ED33F
:1009C00043F61100C0F60000CD2101F071FD40F2A8
:1009D000004E40F20C4CC4F2010EC4F2010CD9F8E6
:1009E00004004FF6FF71C1F21001884228DC122882
:1009F00000F2BE80DFE800F04A0A8A86BCBCBCBCBC
:100A0000BCBCBCBCBCBCBCBCBC6CA400D9F80CA0BD
:100A1000AAF101000328C0F0AB8043F61100C0F634
:100A20000000D52101F044FD40F2004E40F20C4C94
:100A3000D9F80CA0C4F2010EC4F2010C98E000BF7A
:100A40004FF6FF71C1F2210188420FDC0021C1F293
:100A5000110188421AD00021C1F21201884215D03A
:100A60000021C1F22101884210D081E00021C1F2B1
:100A7000220188420AD00021C1F23101884205D00A
:100A80000021C1F23201884272D100BFD9F80800BA
:100A9000032810D343F61100C0F60000F72101F03F
:100AA00007FD40F2004E40F20C4CD9F80800C4F2A9
:100AB000010EC4F2010C38B1012814BF6F612F611F
:100AC0004FF0080A54E000BF4FF0040A50E000BFA6
:100AD000D9F80C00411E032910D343F61100C0F6CB
:100AE0000000DC2101F0E4FC40F2004E40F20C4C2E
:100AF000D9F80C00C4F2010EC4F2010C00F1040A92
:100B000036E000BF4FF0000A32E000BFD9F80C0019
:100B1000411E032910D343F61100C0F60000E32163
:100B200001F0C6FC40F2004E40F20C4CD9F80C002B
:100B3000C4F2010EC4F2010C00F1080A18E000BF73
:100B4000D9F80C00411E032910D343F61100C0F65A
:100B50000000EA2101F0ACFC40F2004E40F20C4CE7
:100B6000D9F80C00C4F2010EC4F2010C00F10C0A19
:100B700028464146BBF5807F24BF043020390268F7
:100B80000F238B409A430AFA01F11143016099F84F
:100B90000700C0067FF503AF41F21801C4F202015D
:100BA000086840F6000240F001000860086826F07E
:100BB000030100F0010002900298AEF57E704158EA
:100BC000C4F20102954209D040F60042C4F201028B
:100BD00095427FF4A7AE0122ACE600BF0022A9E651
:100BE00003B0BDE8F08F000070B516460C46054610
:100BF00031B1022E0ED2002E08BF24042C6170BD2C
:100C000043F61100C0F600004FF4EA7101F050FC09
:100C1000022EF0D343F61100C0F6000040F2D511C9
:100C200001F046FC2C6170BD40F27C10C2F2000065
:100C30000068704740F2000040F27C11C2F20000F0
:100C4000C2F2000100780A68104408607047000092
:100C500080B542F20000C4F20200016841F01001C8
:100C60000160032000F0A8F80F2000F005F800F064
:100C700027F8002080BD000070B540F20006C2F2E7
:100C8000000640F208013278C2F200014FF47A7394
:100C90000968B3FBF2F20446B1FBF2F1084600F03A
:100CA000AFFC0F2C4FF0010508D838B94FF0FF30DA
:100CB00021460022002500F03FF87460284670BDF0
:100CC00082B041F21800C4F202000168022241F031
:100CD00001010160016801F0010101910199416880
:100CE00041F080514160406800F0805000900098D1
:100CF0000420C4F20100016862F31A61016002B0CD
:100D000070470000B0F1FF3F0EDD00F01F0101222F
:100D100002FA01F11C2202EAD0004EF20012CEF2D9
:100D200000028150704700BF43F64A00C0F6000041
:100D3000BD2101F0BDBB000070B515460E46102A5E
:100D4000044606D343F64A00C0F60000A92101F08C
:100D5000AFFB102E06D343F64A00C0F60000AA21CE
:100D600001F0A6FB4EF60C50CEF2000001684FF0E9
:100D7000FF33C1F3022181F00702042A28BF0422B5
:100D8000033903FA02F238BF002126EA02028A4040
:100D900003FA01F125EA0101114304F00F02043ABC
:100DA000104404F16042090102F56442002C48BF7E
:100DB00000F10C02117070BD10B50446033805280F
:100DC00006D343F64A00C0F60000912101F070FB03
:100DD0004EF60C50CEF2000001684FF6FF021140B3
:100DE00064F30A2141F0806141F0FD71016010BDA2
:100DF000002804BF012070472DE9F04381B004466C
:100E000000780D46000700F0B380032D07D343F2AE
:100E1000D970C0F6000040F2373101F049FB42F2D0
:100E20000008C4F20208D8F8000000F00700A84249
:100E30000DD2D8F8000020F007002843C8F80000C1
:100E4000D8F8000000F00700A84240F0B180206808
:100E500041F204098107C4F202091FD5410705D5F3
:100E6000D9F8001041F4E061C9F80010000705D579
:100E7000D9F8000040F46050C9F80000A0686FF095
:100E8000070101EB3011082980F0E280D9F8001049
:100E900021F0F0010843C9F800002068C00773D1B1
:100EA000D8F8000000F00700A8420CD9D8F80000DC
:100EB00020F007002843C8F80000D8F8000000F030
:100EC0000700A84274D1206841071AD5E0686FF086
:100ED000030101EB302104290BD34FEA302141B14A
:100EE00043F2D970C0F6000040F2A23101F0E0FAFE
:100EF000E068D9F8001021F4E0610843C9F8000067
:100F0000206800071AD520696FF0030101EB30213A
:100F100004290BD34FEA302141B143F2D970C0F616
:100F2000000040F2A93101F0C3FA2069D9F800109D
:100F300021F4605141EAC000C9F80000D9F800204E
:100F400002F00C00082841F20020C0F27A0063D1C0
:100F500043F27E53C2F38341C0F60003595CD203CF
:100F60004ED440F60010C0F23D00484354E000BFAC
:100F700043F2D970C0F6000040F2363101F098FA21
:100F8000032DBFF444AF4AE76068032808D343F257
:100F9000D970C0F600004FF4597101F089FA606809
:100FA00059F8041C022807D0012825D1890305D44B
:100FB000012001B0BDE8F0838901F9D5D9F800100E
:100FC00021F003010843C9F80000FFF72DFE064693
:100FD00041F28837D9F80000616800F00C00B0EBEE
:100FE000810F3FF45DAFFFF71FFE801BB842F1D9C0
:100FF000032001B0BDE8F0838907D9D5DEE700BF43
:10100000D9F8002043F27C53C2F34042C0F60003FB
:101010009A5C4843B0FBF2F0D9F8001043F26452F6
:10102000C1F30311C0F60002515C40F2080220FA3D
:1010300001F140F20400C2F200000068C2F20002B6
:101040001160FFF719FE002001B0BDE8F08300BF7A
:101050004FEA301100293FF419AF43F2D970C0F6BE
:10106000000040F25D3101F023FAA0680EE70000B5
:1010700040F2080041F20401C2F20000C4F2020191
:101080000068096843F27452C1F30221C0F60002FD
:10109000515CC8407047000040F2080041F2040172
:1010A000C2F20000C4F202010068096843F27452FF
:1010B000C1F3C221C0F60002515CC8407047000075
:1010C000002804BF012070472DE9F04182B004469A
:1010D000006858B110F00F0108D143F2D970C0F682
:1010E000000040F2651101F0E3F9206841F20006CA
:1010F000C007C4F2020612D06068002818BFB0F51D
:10110000803F40F00781706800F00C00042815D182
:101110003068800303D56068002800F0AF81207834
:10112000800752D52069022820D26069202828D261
:10113000706810F00C0F30D139E000BF706800F01B
:101140000C00082802D17068C003E1D461683068DF
:10115000002900F0F581B1F5A02F00F0E981B1F58B
:10116000803F40F0038240F4803005E243F2D970C2
:10117000C0F6000040F29F1101F09AF96069202842
:10118000D6D343F2D970C0F600004FF4D07101F00D
:101190008FF9706810F00C0F09D0706800F00C0027
:1011A000082840F08D807068C00300F189803068A5
:1011B000800703D52069012840F0608130686169AB
:1011C00020F0F80040EAC1003060207800071FD40A
:1011D0002078400742D4E069032808D343F2D9704D
:1011E000C0F6000040F2AD2101F062F9E06900288C
:1011F00000F03F81716801F00C01082940F0B080D7
:10120000012840F02B81012002B0BDE8F08100BF31
:10121000A069022808D343F2D970C0F600004FF449
:10122000F07101F045F9A069002800F0818060208C
:10123000C4F242200121C0F82014FFF7F5FC054656
:10124000706A800700F1C080FFF7EEFC401B0228A7
:10125000F6D9032002B0BDE8F08100BFE0680528A0
:1012600000F2EE80012101FA00F010F0230F00F0EF
:10127000E780F0695FEAC00808D4F06940F0805068
:10128000F061F06900F080500090009847F200078C
:10129000C4F200073868C0052ED4386840F4807066
:1012A0003860FFF7C1FC05463868C00524D4FFF755
:1012B000BBFC401B6428F7D9032002B0BDE8F081D5
:1012C0002069002840F26000C4F2422000F0A680AD
:1012D000012140F8601CFFF7A7FC05463068800735
:1012E0003FF56CAFFFF7A0FC401B0228F6D90320A6
:1012F00002B0BDE8F08100BFE168306A002900F06B
:10130000DD80052900F0D280012940F0EF8040F017
:101310000100F1E0B0F5A02F3FF4F5AE43F2D97033
:10132000C0F6000040F26B1101F0C2F8EBE600BF1E
:101330006020C4F242200021C0F82014FFF774FCA2
:10134000054600BF706A80077FF542AFFFF76CFC6F
:10135000401B0228F6D9032002B0BDE8F08100BF8F
:10136000022840F08F80206A40F48030B0F5803F42
:1013700007D043F2D970C0F6000040F2B62101F068
:1013800097F8606A4FEAB0400F2807D343F2D9704C
:10139000C0F6000040F2B72101F08AF86027C4F2DD
:1013A000422700203860FFF73FFC05463068800187
:1013B00040F1F480FFF738FC401B02284FF0030097
:1013C000F4D902B0BDE8F08140F20800C2F200009A
:1013D000006844F6D351C1F26201A0FB0101480A42
:1013E000019000BF00BF0198411E002801913FF409
:1013F000EFAE00BF0198411E002801913FF4E8AE16
:1014000000BF0198411E002801913FF4E1AE00BFEA
:101410000198411E00280191E4D1D9E6002140F84D
:10142000601CFFF701FC0546306880077FF5CDAEF4
:10143000FFF7FAFB401B02284FF00300F4D9C0E786
:1014400043F2D970C0F6000040F20F2101F030F8ED
:10145000F0695FEAC0087FF510AF17E77068216A8E
:1014600000F480328A4209D1616A00F47010884227
:1014700004D1002002B0BDE8F08100BF012002B01D
:10148000BDE8F0816020C4F2422000210160FFF736
:10149000CBFB044630688001EBD5FFF7C5FB001B92
:1014A00002284FF00300F5D98BE700BF40F004009D
:1014B0003062306A40F001001EE000BF20F0010001
:1014C0003062306A20F004003062FFF7ADFB054661
:1014D00041F28837306A800720D5FFF7A5FB401B13
:1014E000B8424FF00300F5D96BE700BF20F00100D0
:1014F0003062306A20F004003062FFF795FB054649
:1015000041F28837306A800708D4FFF78DFB401B13
:10151000B842F7D9032002B0BDE8F081B8F1000F5E
:101520003FF559AEF06920F08050F06153E600BFFE
:1015300040F480203060306840F480301CE000BF10
:1015400020F480303060306820F480203060FFF775
:101550006BFB0546306880037FF5E1ADFFF764FB68
:10156000401B64284FF00300F4D92AE720F48030B0
:101570003060306820F480203060FFF755FB05466E
:10158000306880033FF5CBADFFF74EFB401B64286E
:10159000F6D9032002B0BDE8F08100BF206AB0F5A3
:1015A000803F14D1A06840F40031B1F5003F08D06D
:1015B00043F2D970C0F6000040F2CD2100F078FF70
:1015C000A068716821F4003108437060206A716876
:1015D000626A21F47411084310437060012038607E
:1015E000FFF722FB044600BF306880013FF541AFA2
:1015F000FFF71AFB001B02284FF00300F4D9E0E6C6
:10160000411E0020B0EB116F1CBF012070474EF24D
:101610001002CEF2000251604EF62351CEF20001CC
:10162000F0230B7007219060116070477047000035
:101630007047000010B500BF016851E8031F026841
:1016400021F4907142E80313BBB3016851E8031F12
:10165000026821F4907142E8031373B3016851E802
:10166000031F026821F4907142E803132BB3016851
:1016700051E8031F026821F4907142E80313002B24
:10168000DAD11AE0016851E8051F026821F0010172
:1016900042E80513DBB1016851E8051F026821F03B
:1016A000010142E8051393B1016851E8051F026882
:1016B00021F0010142E805134BB1016851E8051F13
:1016C000026821F0010142E80513002BDAD1016B19
:1016D000012924D1016851E8031F026821F010019B
:1016E00042E80313DBB1016851E8031F026821F0EF
:1016F000100142E8031393B1016851E8031F026827
:1017000021F0100142E803134BB1016851E8031FB7
:10171000026821F0100142E80313002BDAD10168BE
:101720004969490636D500BF016851E8051F0268BE
:1017300021F0400142E80513DBB1016851E8051FC3
:10174000026821F0400142E8051393B1016851E8B5
:10175000051F026821F0400142E805134BB1016802
:1017600051E8051F026821F0400142E80513002BF3
:10177000DAD1C16B71B1044642F27D20C0F600009F
:1017800048630846FEF7DEFF60B1E06B416B8847B7
:10179000002010BD00212022C18580F84220016375
:1017A000FFF746FF002010BD70470000B0B582B0C3
:1017B00001680A68CC684B6902F02F05202D04F0FF
:1017C000200505D125B102B0BDE8B04000F060BDF4
:1017D0005FEA027C1EBF03F0010E04F4907313EB6A
:1017E0000E0341D1036BD50618D5012B16D114F089
:1017F000100313D0002201920A6801924A680192F4
:10180000019A496949064BD4818DC28DC38D002B45
:1018100018BF914240F0F48102B0B0BD13062DD53F
:1018200014F080032AD090F84120212AF4D1826854
:10183000B2F5805F03D10269002A00F06782026A74
:10184000531C036212784A60C28C013A1304C284AA
:10185000E2D1C86820F08000C860C86840F040004D
:10186000C86002B0B0BD00BFD30718BF14F48073C6
:1018700040F0D080530700F1D380D8E05206CBD59A
:1018800014F04002C8D0CA6822F04002CA60202189
:1018900080F8411002B0BDE8B04000F009BC00BFC4
:1018A000C16B0A68526893B2002BB5D0858DAB42EC
:1018B000B2D2C2858969202900F0A180016851E86F
:1018C000031F026821F4807142E80313DBB1016851
:1018D00051E8031F026821F4807142E8031393B1B9
:1018E000016851E8031F026821F4807142E8031384
:1018F0004BB1016851E8031F026821F4807142E88E
:101900000313002BDAD1016851E8051F026821F0AA
:10191000010142E80513C3B3016851E8051F0268DD
:1019200021F0010142E805137BB3016851E8051F6E
:10193000026821F0010142E8051333B3016851E860
:10194000051F026821F0010142E80513002BDAD1DE
:101950001BE000BF016851E8051F026821F040014B
:1019600042E80513DBB1016851E8051F026821F068
:10197000400142E8051393B1016851E8051F026870
:1019800021F0400142E805134BB1016851E8051F01
:10199000026821F0400142E80513002BDAD1202132
:1019A00080F8421000210163016851E8031F0268BA
:1019B00021F0100142E80313DBB1016851E8031F75
:1019C000026821F0100142E8031393B1016851E865
:1019D000031F026821F0100142E803134BB10168B4
:1019E00051E8031F026821F0100142E80313002BA5
:1019F000DAD1C16B04460846FEF780FE204602217C
:101A00004163818DC28D891A89B202B0BDE8B040B0
:101A1000FFF70CBE436C43F001034364530706D544
:101A2000BEF1000F03D0436C43F0020343649307FD
:101A300006D5BEF1000F03D0436C43F004034364AA
:101A4000BCF1000F06D55EEA050303D0436C43F0FA
:101A500008034364436C002B3FF4DEAE920605D5C9
:101A600025B1044600F014FC216820464969426C07
:101A700001F0400102F00802891800F0B98000BFAF
:101A8000016851E8031F026821F4907142E80313D2
:101A9000BBB3016851E8031F026821F4907142E86A
:101AA000031373B3016851E8031F026821F49071B6
:101AB00042E803132BB3016851E8031F026821F4C5
:101AC000907142E80313002BDAD11AE0016851E863
:101AD000051F026821F0010142E80513DBB101682E
:101AE00051E8051F026821F0010142E8051393B196
:101AF000016851E8051F026821F0010142E8051361
:101B00004BB1016851E8051F026821F0010142E86C
:101B10000513002BDAD1016B012924D1016851E8AA
:101B2000031F026821F0100142E80313DBB10168D2
:101B300051E8031F026821F0100142E8031393B13A
:101B4000016851E8031F026821F0100142E8031305
:101B50004BB1016851E8031F026821F0100142E80F
:101B60000313002BDAD1202180F8421000210163F9
:101B700001684969490640F1C380016851E8051FC1
:101B8000026821F0400142E80513DBB1016851E829
:101B9000051F026821F0400142E8051393B1016876
:101BA00051E8051F026821F0400142E805134BB1DE
:101BB000016851E8051F026821F0400142E8051361
:101BC000002BDAD1C16B002900F09A8042F2712219
:101BD000C0F60002044608464A63FEF7B3FD00283B
:101BE0003FF41AAEE06B416B02B0BDE8B04008476D
:101BF0000446FFF7D9FD0020606402B0B0BD00BF0D
:101C0000891A00BF026852E8032F036822F4907219
:101C100043E80325BDB3026852E8032F036822F4AA
:101C2000907243E8032575B3026852E8032F0368F6
:101C300022F4907243E803252DB3026852E8032F83
:101C4000036822F4907243E80325002DDAD11AE0EC
:101C5000026852E8052F036822F0010243E80525D7
:101C6000DDB1026852E8052F036822F0010243E863
:101C7000052595B1026852E8052F036822F001029C
:101C800043E805254DB1026852E8052F036822F0AC
:101C9000010243E80525002DDAD1202280F84220F8
:101CA00000220263026852E8032F036822F0100248
:101CB00043E80325DDB1026852E8032F036822F0F0
:101CC000100243E8032595B1026852E8032F036828
:101CD00022F0100243E803254DB1026852E8032FB9
:101CE000036822F0100243E80325002DDAD1022216
:101CF00089B2426302B0BDE8B040FFF797BC00BFB5
:101D000002B0BDE8B040FFF74FBD00BF026A32F835
:101D1000023B6FF35F234B60026295E5002804BF2E
:101D20000120704710B504468069216810B344F261
:101D30000042C4F20002914214D044F60002C4F200
:101D4000000291420ED043F60002C4F20102914219
:101D500008D043F2A070C0F600004FF4B77100F055
:101D6000A7FBA0694FEA302004281DD340F26F1171
:101D700014E000BF44F20040C4F20000814213D0DE
:101D800044F60000C4F2000081420DD043F600008A
:101D9000C4F20100814207D040F2731143F2A070F7
:101DA000C0F6000000F084FBA06840F48050B0F55D
:101DB000805F23D194F8410060B3242084F841006F
:101DC0002068C16821F40051C160204600F0E0FAAB
:101DD0002068016921F490410161416921F02A01E3
:101DE0004161C16841F40051C1600020202160645C
:101DF00084F8411084F84210606310BD43F2A07073
:101E0000C0F6000040F2751100F052FB94F841005A
:101E10000028D2D1002084F84000204600F002F8CB
:101E2000CBE7000070B586B040F60004C4F20104B0
:101E3000006804F54051002688420596CDE9036606
:101E4000029601D006B070BD41F21800C4F2020043
:101E5000016802AD41F480410160016801F48041F4
:101E600001910199016841F004010160006829466F
:101E700000F00400019001984FF4007002900220DD
:101E80000390032005902046FEF7CCFC4FF48060C1
:101E9000CDE90206204629460496FEF7C3FC25201C
:101EA00000210022FEF748FF2520FEF72BFF06B099
:101EB00070BD000090F84230202B07D100294FF070
:101EC000010318BF002A05D118467047022318469F
:101ED000704700BF00230363816222218285C2858F
:101EE000436480F842100169006819B1C16841F487
:101EF0008071C160416941F001014161C16841F0F7
:101F00002001C16018467047006843F60001C4F222
:101F10000101884218BF704700F0C0BD2DE9F043B1
:101F200081B0044690F84100202809D100294FF0E3
:101F3000010018BF002A07D101B0BDE8F08300BF3F
:101F4000022001B0BDE8F0830020606421201D461E
:101F50000E4684F841001746FEF766FEA784E78424
:101F6000A1688146B1F5805F02D1206900285DD06B
:101F700037460020E28C2168002A5DD06A1C24D0FC
:101F8000002D4AD0804600BF0868000608D4FEF73E
:101F90004BFEA0EB0900A8427AD82168C868F3E795
:101FA00017B117F8010B04E038F8020B00276FF3A4
:101FB0005F204860E08C0138E084E08C0028E3D1A9
:101FC0003AE000BF0A68120609D40A68120606D46D
:101FD0000A6812065CBF0A685FEA0262F2D51FB1A6
:101FE00017F8012B05E000BF30F8022B00276FF334
:101FF0005F224A60E28C013AE284E28C002AE4D15A
:102000001AE000BF30F8022B00276FF35F224A600E
:10201000E28C013AE284E28C72B10A68120635D58C
:10202000002FEFD017F8012BF1E700BF0027304653
:10203000E28C2168002AA1D1086840061ED42DB385
:10204000681C14D1086840062AD40868400627D4C2
:102050000868400624D4086840064FF00000F1D517
:102060000DE000BF2068C1680068400618D4FEF784
:10207000DBFDA0EB0900A842F4D909E000202021F3
:1020800084F8411001B0BDE8F08300BFFEF7CCFD3D
:102090000320202184F8411001B0BDE8F08300BF87
:1020A0000020202184F8411001B0BDE8F083000039
:1020B0007047000040F23404C2F2000404A500BFDF
:1020C0002046294615224FF47A73FFF727FFF7E7DA
:1020D00052554E20486172644661756C745F486168
:1020E0006E646C657200000070B586B0002541F228
:1020F0001800CDE90455CDE90255C4F2020001688B
:1021000040F6004441F0200101600168C4F201047E
:1021100001F02001019101990168002241F00401C0
:10212000016001684FF4807601F00401019101998A
:10213000016841F00801016000684FF4807100F00F
:102140000800019001982046FEF74EFD0120CDE9E0
:1021500003050220059002A920460296FEF762FBC5
:1021600006B070BD80B540F2340043F60001C2F203
:102170000000C4F2010100234FF00C0C4FF4E132D7
:1021800080E80E00C0E90333C0E905C3C361FFF76F
:10219000C5FD002808BF80BDBDE88040FEF796BAA7
:1021A000FEE70000FEE700007047000070470000F7
:1021B00080B5FEF73FFDBDE8804000F0E7B90000C4
:1021C000B0B590B000240120CDE90B44CDE909441D
:1021D00006900A904FF4E0104FF4803102250F90E2
:1021E00006A8CDE90714CDE90D51FEF769FFB8B196
:1021F00040F2340443F28E75C2F20004C0F60005CA
:10220000EFF3108072B600BF2046294611224FF42A
:102210007A73FFF783FE4FF47A70FEF7EFFAF3E775
:102220000F20CDE901054FF48060CDE9040401A839
:1022300002210394FEF7DCFDB0B140F2340443F216
:102240008E75C2F20004C0F60005EFF3108072B67E
:102250002046294611224FF47A73FFF75FFE4FF4B0
:102260007A70FEF7CBFAF3E710B0B0BD704700000C
:10227000406A0021C185C184FFF796BA406A0021F7
:102280002022C18580F842200163FFF7D1B9000008
:1022900081B090F84210222921D183680246B3F51B
:1022A000805F09D152F8281F52F8183C002B63D0E8
:1022B00003685B680AE000BF52F8281F13B903697E
:1022C000002BF5D003685B6803F07F030B70116887
:1022D00001311160C18D01390A04C18502D001B0FC
:1022E000704700BF0168CA6822F02002CA60CA684D
:1022F00022F48072CA604A6922F001024A612021F8
:1023000080F8421000214163026B012A3CD1016335
:10231000016851E8031F026821F0100142E803132D
:10232000DBB1016851E8031F026821F0100142E8A7
:10233000031393B1016851E8031F026821F01001F3
:1023400042E803134BB1016851E8031F026821F012
:10235000100142E80313002BDAD101680A68D206A3
:1023600006D5002200920A680092496800910099FF
:10237000818D01B0FFF75AB9026852686FF35F228E
:1023800021F8022B8162A5E701B0FFF7BDBD000077
:1023900010B5044640684AF62121C0F24401884243
:1023A00007D343F2A070C0F6000040F6756100F05C
:1023B0007FF8E06840F40050B0F5005F07D043F2CA
:1023C000A070C0F6000040F6766100F071F8206958
:1023D000002818BFB0F5806F56D1606918B14FF66C
:1023E000F371084007D043F2A070C0F6000040F639
:1023F000786100F05DF82068D4E902C223690169C0
:1024000021F4405111430161616943EA0C02114317
:10241000C26841F20C639A431143C1604169A269E9
:1024200021F44071114343F60002C4F201029042CC
:10243000416103D0FEF71CFE02E000BFFEF72CFE58
:10244000D4E90023192148439900B0FBF1F048F288
:102450001F51C5F2EB11A0FB013463094FF69C74C8
:10246000C0F6FF7403FB0400322404EB0010A0FB51
:102470000101F02000EA511000EB0310C1F34311F9
:102480000844906010BD00BFB0F5C06FA5D043F206
:10249000A070C0F6000040F6776100F009F89CE7F4
:1024A00040F23400C2F20000FFF780B9FEE70000FE
:1024B00010B59AB001AC0B46024609A1204600F0C7
:1024C000CFFB2046FDF752FE82B240F23400C2F24A
:1024D000000021464FF47A73FFF720FD1AB010BDBB
:1024E00057726F6E6720706172616D65746572738B
:1024F0002076616C75653A2066696C6520257320CD
:102500006F6E206C696E652025640D0A0000000066
:1025100084B0FEF79DFBFFF753FEFFF7E5FDFFF7E5
:1025200021FE00F015F80120039045F23460C0F25E
:102530007800029040F20030C1F20620019041F292
:102540000100009068460D2100F02AFAFEE7000025
:1025500040F210030121C2F200034FF07A70C1F281
:102560003421C3E90601187840F27C01C2F200016F
:1025700040F2020C014440F23400C5F2786CC2F221
:1025800000000122C3F820C0FFF794BC70B5FEF72D
:102590004BFB40F21006C2F20006D6E902430025CA
:1025A000011B65EB03022343C6E904052AD0481F3B
:1025B00072F1000026D37078002818BF70BD307803
:1025C00005280BD340F23400C2F20000FFF732F8C6
:1025D00000F084FA002818BF00F016F840F27C04DE
:1025E000C2F2000420468021FDF7B5FD00203070C6
:1025F00040F23400C2F20000214601220124FFF71C
:1026000059FC747070BD00002DE9F047A0B040F295
:102610007C0540F20C00C2F20005C2F200002E78E8
:102620000078864240F0A78140F2FC09C2F200091E
:1026300009F101007F21FDF78EFD687889F80060BF
:10264000102843D006281DD0032840F09481032091
:1026500089F80100287969796A8851EA00204FEAEF
:10266000410A89F802A000F0148140F21003C2F27E
:102670000003198B52BA8A4240F096800025012649
:10268000FBE000BF40F2100C06206988C2F2000C8B
:1026900089F801002879BCF818406B7949BA8C4256
:1026A00043EA002826D1220A9E460546ACF81A8045
:1026B00089F8022089F8034089F8040089F8053078
:1026C000BCF81C70B9421ED02BE000BF6879297994
:1026D000400061F34F20002800F0888040F2100392
:1026E0006A88C2F20003198B52BA8A4256D1002678
:1026F000012764E04FF0000E002500240022BCF802
:102700001C70B9420DD13A0A9E4605463C46ACF8CB
:102710001E8089F8022089F8037089F8040089F87E
:102720000530BCF82070B9420DD13A0A9E460546E4
:102730003C46ACF8228089F8022089F8037089F8B9
:10274000040089F8053043F28E5186F0FF00C0F690
:1027500000010B5C43F28E67C0F6000783F0F903BB
:10276000385CCE5CFB5C704050400A5CE6B25A407C
:102770007240385C8E5CB9F8043070406840ADF847
:102780000430BA5C0B5C385C5A4082EA0E02895C09
:10279000D9F800604840B95C00965EE09F8BBA4271
:1027A00008D1012701260AE09E8BB24260D10126A2
:1027B000012562E01F8CBA4218D102260027B5F825
:1027C000074003EB860324BA240C5C8377B1B5F889
:1027D000097003283FBA4FEA1747DF8306D38A42BE
:1027E00004D1B5F80B0000BA000C58842868AB88F7
:1027F000C14343F28E52A9F80430C9F80000CFB2A9
:10280000C0F60002D65D99F8015043F28E616E4029
:10281000C0F6000186F0FF06CF5D955D8E5D6F40CE
:1028200099F80250ADF804306F40D55DCF5D6E4031
:1028300099F8035000906E40955D8E5D85EA070320
:1028400099F8047099F805507B40D75CCB5C7740D1
:102850006F40D25DC95D82EA03008DF8060040F248
:1028600034008DF80710C2F20000694608227EE0AD
:102870001E8CB2420DD10225002603EB85035D8B31
:1028800001282DBA4FEA1545A9F8035018BF002EAC
:1028900074D10AF1030440F2FC065FFA84F9C2F233
:1028A0000006E846404631464A46FDF73BFC0AF141
:1028B0000200C0B2032843F28E5143F28E6004F04E
:1028C000030CC0F60001C0F6000003D2FF23FF2571
:1028D00029E000BF40F2FC0609F0FC0E0022FF23B5
:1028E000C2F20006FF2500BF16F8047BEDB27D4062
:1028F0004F5D16F8034CDBB27B406340455DCC5C1A
:1029000016F8027C6C407C40C35C0D5D16F8017CBF
:102910006B407B40045DCD5C0432C35C97B277456D
:1029200085EA0405E0D13278EFB27A408F5C825CB0
:10293000BCF1010F83EA07030AD07778DBB27B4052
:10294000B678CF5CC35C77407A40895C825C4B4050
:102950000AF10400C0B20AF1050108F8002040F2B3
:10296000340008F80930CAB2C2F2000041464FF400
:102970007A73FFF7D3FA20B0BDE8F087DE8B032827
:1029800036BA4FEA1646A9F80560FFF482AF8A42CC
:102990007FF47FAF588C00BA000CA9F8070078E7E5
:1029A0002DE9F043A1B0894606460DF104084046E2
:1029B00031464A46FDF7B6FBB9F1000F10D043F29D
:1029C0008E5143F28E6009F0030CB9F1040FC0F68A
:1029D0000001C0F6000007D2FF22FF2429E000BF5B
:1029E000FF24FF2243E000BF09F0FC0E0023FF227A
:1029F000FF2400BF16F8045BE4B26C400D5D16F8CE
:102A0000037CD2B26A407A40045D8D5C16F8027C89
:102A10006C407C40825C0D5D16F8017C6A407A4017
:102A2000045D8D5C0433825C9FB2774584EA0504C3
:102A3000E0D1BCF1000F1AD03378E7B27B40CF5C15
:102A4000BCF1010F87EA0204C25C10D07378E7B2D0
:102A50007B40CF5CBCF1020F87EA0204C25C06D067
:102A6000B378E7B27B40C95C81EA0204C25C09F139
:102A70000100C0B209F1020108F8002040F2340060
:102A8000CAB2C2F2000041464FF47A7308F8094016
:102A9000FFF744FA21B0BDE8F0830000B0B540F282
:102AA0001004C2F2000420787E2888BFB0BDFEF773
:102AB000BBF821780025C4E90205481C40F27C01DE
:102AC0002070C0B2C2F20001014440F23400C2F2F0
:102AD00000000122FFF7EEF96570B0BD2DE9F04F5F
:102AE00003AF81B040F21008C2F2000898F800A0CD
:102AF000BAF1030F0AD30AF1050020F00700AAF18A
:102B00000209ADEB0005AD4612E000BF4DA060210B
:102B1000FFF7CEFC98F800A00AF1050020F00700AE
:102B2000AAF10209ADEB0005AD46BAF1030F07D3D8
:102B300040F27C01C2F2000128464A46FDF7F2FA53
:102B4000B9F1000F14D043F28E5143F28E6B09F0AD
:102B5000030CB9F1040FC0F60001C0F6000B0BD254
:102B6000FF2600220023FF24BCF1000F32D14EE0EB
:102B7000FF22FF234BE000BF4FF6FC7209EA020E72
:102B80000026FF23FF2200BF15F8044B04366240E5
:102B90008C5C15F8030C634058401BF802200B5C5A
:102BA00015F8024C5A4062401BF800008B5C15F887
:102BB000014C584060401BF802200C5C1BF80030B0
:102BC000B0B2704582EA0402DED11E461446BCF162
:102BD000000F1CD02878BCF1010F80EA04000A5CC9
:102BE0001BF8003082EA060211D06878BCF1020FAF
:102BF00080EA02000A5C82EA03021BF8003006D079
:102C0000A8785040095C81EA03021BF8003040F2CA
:102C10007C01C2F2000143EA022011F8092051446C
:102C200011F8011CA8F8020041EA0221401AB0FA8A
:102C300080F0A7F10C044009A8F80410A546BDE8EF
:102C4000F08F00BF2E2E2F436F72652F4253502FEF
:102C50004D4F444255532F6D6F646275732E630060
:102C60000FB4084B10B504A902AA039800F0DEF8CF
:102C7000044602A9002000F070FC204610BC5DF85C
:102C800014FB00005B35000802E008C8121F08C1F1
:102C9000002AFAD170477047002001E001C1121FDD
:102CA000002AFBD1704700002DE9FF5F82B00021B0
:102CB000DDE90430020DDDF840B0034318D044F6DE
:102CC0001050A2F2FF3242431514119801281FD070
:102CD000A5EB0B00401C5FEA000A4FF000064E4FC8
:102CE000DFF83891B046504615D5CAF1000413E01C
:102CF000119801244AA3012801D16FEA0B0102981F
:102D0000119AC0E90031C0E9024206B0BDE8F09F67
:102D1000CBF10000DFE704460021404A491842EBAE
:102D20000450CDE9001012E0E00707D032463B46E0
:102D300040464946FDF70FFB8046894632463B46F2
:102D400010461946FDF707FB06460F466410002C97
:102D5000EAD1DDE90401DDE90023BAF1000F06DA6A
:102D6000FDF7F9FA42464B46FDF7F5FA05E0FDF7A7
:102D700064FB42464B46FDF760FB04460E460022CC
:102D8000284BFDF7E1FB03D84FF0FF30014607E089
:102D90000022254B20463146FDF736FAFDF7BCFBF5
:102DA000102409E0002C0ADB0A220023FDF7FBF9BE
:102DB000039B30321A55641E50EA0102F2D1641CA2
:102DC000039AC4F111031444119A012A03D0012279
:102DD00008430DD10AE0084304D000204FF0110B46
:102DE000119072E7A3EB0B056D1E0DE05B4504DD52
:102DF0004FF0000205F1010504E003DA4FF0000294
:102E0000A5F10105002AECD002981199C0E9023120
:102E1000C0E9004579E70000000014400000F03FE1
:102E2000300000000000F0430000E03F2DE9FF4FBC
:102E300095B09B468946064600250FE2252877D1A6
:102E400000242746F84A0121059400E0044316F8BF
:102E5000013F203B01FA03F01042F7D130782A28D5
:102E600011D06FF02F033078A0F13002092A16D864
:102E7000059A44F0020402EB820203EB4202104482
:102E8000761C0590EFE759F8042B0592002A03DA27
:102E9000504244F40054059044F00204761C30780B
:102EA0002E2816D116F8010F44F004042A280DD05C
:102EB0006FF02F023078A0F13003092B09D807EB0F
:102EC000870302EB4303C718761CF3E759F8047B2A
:102ED000761C30786C280FD006DC4C2817D0682878
:102EE0000DD06A2814D104E0742810D07A280FD1AC
:102EF0000DE044F400140AE044F4801401E044F4CA
:102F000040147278824202D104F58014761C761C3B
:102F1000307866280BD013DC582877D009DC0028DD
:102F200075D04528F6D04628F4D047281AD19DE11F
:102F300018E0632835D0642879D0652812D195E14E
:102F4000702873D008DC6728F1D069286FD06E280C
:102F50000DD06F2806D1B5E073282CD0752875D018
:102F6000782874D05A46179990476D1C75E1C4F3C0
:102F70000250022809D003280DD0D9F800100428E7
:102F80000DD00D6009F1040967E1D9F80010EA17C6
:102F9000C1E90052F6E7D9F800100D80F2E70D7094
:102FA000F0E719F8041B8DF8001000208DF80100DF
:102FB000EA46012003E059F804AB4FF0FF30610707
:102FC0004FF0000102D40DE008F101018846B9423A
:102FD0000FDA8045F8DB1AF808100029F4D108E070
:102FE00008F1010188468142FADB1AF8081000292D
:102FF000F6D105985B46A0EB080721463846179A9C
:1030000000F094FA284400EB080507E04DE029E1C0
:103010000DE01AF8010B5A4617999047B8F10108CC
:10302000F7D25B4621463846179A13E142E00A225E
:103030000092C4F302524FF0000A022A08D059F855
:1030400004CB032A4FEAEC710AD00DE029E02AE014
:1030500009F1070121F00702F2E802C1914609E0F7
:103060000FFA8CFC4FEAEC71042A03D14FFA8CFC66
:103070004FEAEC71002907DA0A460021DCF1000C66
:1030800061EB02012D2202E0220504D52B228DF8EE
:103090000420012203E0E20701D02022F7E7904656
:1030A00059E00A2102E010220DE010214FF0000A41
:1030B00000910BE010224FF0000A44F004040827AE
:1030C000009203E008224FF0000A0092C4F302527B
:1030D000022A05D059F804CB0021032A08D009E0C0
:1030E00009F1070121F00702F2E802C1914605E06B
:1030F0001FFA8CFC042A01D10CF0FF0C4FF00008E1
:10310000220728D5702806D0009B83F0100353EACD
:103110000A0305D00EE040228DF80420012208E0C9
:103120005CEA010206D030228DF804208DF80500FB
:1031300002229046009B83F0080353EA0A030AD157
:103140005CEA010201D1620705D530228DF8042026
:103150004FF001087F1E582804D034A003900EA819
:1031600002900DE036A0F9E753466046009AFDF75D
:103170001AF884460398825C0298401E02900270FE
:103180005CEA0100F0D1029806A9081A00F1200AB1
:10319000600702D524F4803400E00127574502DDA2
:1031A000A7EB0A0000E0002000EB0A010090059860
:1031B0004144401A0590E00306D45B462146179A25
:1031C000059800F0B3F90544002706E001A85A4627
:1031D000C05D179990476D1C7F1C4745F6DBE003E7
:1031E0000CD55B462146179A059800F09FF90544D7
:1031F00004E030205A46179990476D1C0099481EEC
:1032000000900029F5DC08E0029802995A460078FF
:10321000491C0291179990476D1CBAF10001AAF15F
:10322000010AF1DC65E10000092801003031323388
:1032300034353637383961626364656600000000F2
:1032400030313233343536373839414243444546DC
:103250000000000000F058F90544761C3078002882
:103260007FF4ECAD19B02846BDE8F08F620700D4BA
:10327000062709F1070222F0070CFCE80223E146C9
:1032800003F000485FEA080C02D00FF2702C0DE04A
:103290005FEA045C02D50FF2682C07E05FEAC47CA9
:1032A00002D00FF2602C01E0AFF2700C4FF0FF384B
:1032B00023F00043CDF850C065280CD006DC45282B
:1032C00009D046281DD047283DD13DE0662818D0BA
:1032D00067287ED138E00021112F01DB112000E0AA
:1032E000781CCDE9000106A90EA8FFF7DDFCDDE999
:1032F0000F010E9A03910021009207F1010A049137
:103300004DE04FF000400097CDE9011006A90EA84E
:10331000FFF7CAFCDDE90F0203920E9B1199002210
:10332000DDF80CA00093049211B9791C00EB010A9E
:10333000B7EB0A0004D4C0F1FF3007F1010A049092
:10334000AAEB0700019044E0012F00DA01270021D9
:10335000112F01DD112000E03846CDE9000106A95A
:103360000EA8FFF7A1FCDDE90F010E9A03910021E1
:1033700004910092BA4621070CD40399514500DA12
:103380008A46BAF1010F05DD009AAAF10101515CEC
:10339000302908D0B84202DA10F1040F06DA012110
:1033A000CDE9011015E0AAF10101E9E7002805DCEB
:1033B000049901440491AAEB000102E0411C51452B
:1033C00000DD8A460499401A401C01904FF00040ED
:1033D0000290200704D40198504501DBCDF8048009
:1033E00000208DF84F0002980DF14F07B0F1004F0B
:1033F00025D02B200E9002984FF0020800280CDAFE
:10340000404202902D200E9007E00A210298FCF71E
:10341000B4FE3031029007F8011DB8F10001A8F1A7
:103420000108F2DC02980028EFD1791E0E9808708E
:10343000307800F0200040F0450007F8020D12A897
:10344000C01B00F107081498007800B1012000EBC0
:103450000A01019801EBE07105984144401A401EB1
:103460000590E00306D45B462146179A059800F0C4
:103470005DF805441498007818B15A46179990479A
:103480006D1CE00324D55B462146179A059800F091
:103490004DF805441CE00498002807DBDDE9030132
:1034A000884203DD0098405C179901E017993020AD
:1034B0005A469047049805F10105401C0490019874
:1034C000401E019004D12E205A46179990476D1C3A
:1034D000BAF10001AAF1010ADDDC05E017F8010BE1
:1034E0005A46179990476D1CB8F10001A8F10108E0
:1034F000F4DC5B462146179A0598ABE62D000000E8
:103500002B000000200000002DE9F04104460025BA
:103510001E461746880404D405E039462020B047EB
:103520006D1C641EF9D52846BDE8F0812DE9F041F7
:10353000044600251E469046C80301D5302700E00A
:103540002027880404D505E041463846B0476D1C65
:10355000641EF9D52846BDE8F0810A68531C0B604B
:10356000107070470000000000000000010203041A
:10357000060708090000000001020304010202031B
:103580000405060708090A0B0C0D0E0F101000C1E8
:10359000814001C0804101C0804100C1814001C023
:1035A000804100C1814000C1814001C0804101C013
:1035B000804100C1814000C1814001C0804100C103
:1035C000814001C0804101C0804100C1814001C0F3
:1035D000804100C1814000C1814001C0804100C1E3
:1035E000814001C0804101C0804100C1814000C1D3
:1035F000814001C0804101C0804100C1814001C0C3
:10360000804100C1814000C1814001C0804101C0B2
:10361000804100C1814000C1814001C0804100C1A2
:10362000814001C0804101C0804100C1814000C192
:10363000814001C0804101C0804100C1814001C082
:10364000804100C1814000C1814001C0804100C172
:10365000814001C0804101C0804100C1814001C062
:10366000804100C1814000C1814001C0804101C052
:10367000804100C1814000C1814001C0804100C142
:10368000814001C0804101C0804100C1814000C033
:10369000C101C30302C2C60607C705C5C404CC0CDA
:1036A0000DCD0FCFCE0E0ACACB0BC90908C8D8184A
:1036B00019D91BDBDA1A1EDEDF1FDD1D1CDC14D45A
:1036C000D515D71716D6D21213D311D1D010F0308A
:1036D00031F133F3F23236F6F737F53534F43CFC9A
:1036E000FD3DFF3F3EFEFA3A3BFB39F9F83828E84A
:1036F000E929EB2B2AEAEE2E2FEF2DEDEC2CE4241A
:1037000025E527E7E62622E2E323E12120E0A06089
:1037100061A163A3A26266A6A767A56564A46CAC59
:10372000AD6DAF6F6EAEAA6A6BAB69A9A86878B8C9
:10373000B979BB7B7ABABE7E7FBF7DBDBC7CB474D9
:1037400075B577B7B67672B2B373B17170B0509089
:1037500091519353529296565797559594549C5C19
:103760005D9D5F9F9E5E5A9A9B5B995958988848C9
:1037700049894B8B8A4A4E8E8F4F8D4D4C8C448499
:103780008545874746868242438341818040525522
:103790004E204572726F725F48616E646C65720094
:1037A0002E2E2F447269766572732F53544D333227
:1037B000463178785F48414C5F4472697665722F74
:1037C0005372632F73746D3332663178785F68613A
:1037D0006C5F756172742E63002E2E2F44726976B1
:1037E0006572732F53544D3332463178785F4841B8
:1037F0004C5F4472697665722F5372632F73746DD8
:103800003332663178785F68616C5F7263632E6310
:10381000002E2E2F447269766572732F53544D33E8
:1038200032463178785F48414C5F44726976657200
:103830002F5372632F73746D3332663178785F68FB
:10384000616C5F6770696F2E63002E2E2F44726962
:10385000766572732F53544D3332463178785F4812
:10386000414C5F4472697665722F5372632F737493
:103870006D3332663178785F68616C5F636F727444
:1038800065782E6300000000A838000800000020C2
:1038900010000000882C0008B83800081000002034
:1038A00070050000982C00080100000010000000C6
:0838B00000127A000100000083
:04000005080000ED02
:00000001FF
